:100000000C945A000C9464000C9464000C946400EA
:100010000C9464000C9464000C9464000C946400D0
:100020000C9464000C9464000C9464000C946400C0
:100030000C9464000C9464000C9464000C946400B0
:100040000C9464000C9464000C9464000C946400A0
:100050000C9464000C9464000C9464000C94640090
:100060000C9464000C9464000C9464000C9466007E
:100070000C9464000C9464000C9464000C94640070
:100080000C9464000C9464000C9464000C94640060
:100090000C9464000C9464000C9464000C94640050
:1000A0000C9464000C9464000C9464000C94640040
:1000B0000C94640011241FBECFEFD8E0DEBFCDBF8B
:1000C0000E94FB000C9448020C9400001F920F92B7
:1000D0000FB60F9211242F938F939F934F9B0CC0B9
:1000E000489A2FEF83EC99E0215080409040E1F74F
:1000F00000C000004F99F4CF9F918F912F910F90E6
:100100000FBE0F901F901895EAE7F0E0808187609E
:100110008083ACE7B0E08C9180648C9380818068B0
:1001200080838081806480830895ECE7F0E0908193
:10013000907F90839081892B8083EAE7F0E0808133
:1001400080648083808186FDFDCF809178009091CE
:1001500079000895E0E8F0E0808183628083E1E83F
:10016000F0E0808189608083089585B973987298E2
:10017000719A8FE39FE10197F1F700C00000719839
:10018000089588E30E94B5008FE99FE00197F1F799
:1001900000C0000081E00E94B5008FE99FE0019758
:1001A000F1F700C0000082E00E94B5008FE99FE0F7
:1001B0000197F1F700C0000086E00E94B5008FE9CA
:1001C0009FE00197F1F700C0000080E80E94B500B1
:1001D0008FE99FE00197F1F700C00000089585B90D
:1001E000739A7298719A8FE39FE10197F1F700C0BB
:1001F000000071980895CF93DF9300D000D0CDB761
:10020000DEB78FEF84B98DB99FE39AB98BB9E3E775
:10021000F0E0808182608083E8E6F0E080818860A1
:10022000808378940E94AA000E9484000E94C100EA
:1002300080E293E0909389008093880010928B0075
:1002400010928A002FEF81EE94E021508040904080
:10025000E1F700C000008CE00E94B500EFEFF1EE86
:1002600024E0E150F0402040E1F700C0000081E0D0
:100270000E94B50081E40E94EF008FE99FE00197A2
:10028000F1F700C0000084E40E94EF00EFE9FFE016
:100290003197F1F700C0000083E40E94EF0080E393
:1002A0000E94EF008FE99FE00197F1F700C0000086
:1002B00080E20E94EF00EFE9FFE03197F1F700C024
:1002C00000008DE30E94EF0080EC0E94B5008FE9F2
:1002D0009FE00197F1F700C000008CE00E94B5009C
:1002E000EFE9FFE03197F1F700C0000080E20E94E3
:1002F000EF008FE99FE00197F1F700C0000080E276
:100300000E94EF00EFE9FFE03197F1F700C0000035
:1003100081E40E94EF008FE99FE00197F1F700C0B0
:10032000000088E60E94EF00EFE9FFE03197F1F767
:1003300000C000008DE60E94EF008FE99FE001976A
:10034000F1F700C0000085E60E94EF00EFE9FFE052
:100350003197F1F700C0000085E60E94EF008FE9B9
:100360009FE00197F1F700C0000084E60E94EF00D3
:10037000EFE9FFE03197F1F700C0000019821A821F
:100380001B821C8280E289830F2EFAE8AF2EB12CEB
:10039000F02D6894FF24F5F86E01F5E0CF0ED11C26
:1003A00080E090E00E9495008C0180E090E00E9447
:1003B0009500F50191838083F982FA82FB82FC82A9
:1003C00088E80E94B5004AE050E0BE016F5F7F4FB1
:1003D000C8010E9408028E010F5F1F4FF801819132
:1003E0008F0190ED980F9A3020F08F2D0E94EF0032
:1003F00002C00E94EF00C016D10681F7FFEF23EC88
:1004000089E0F15020408040E1F700C00000C8CFF3
:100410004532510520F4423010F00C941302FB01D8
:100420001082CB010895BB274A3031F4992322F47E
:10043000BDE2909581959F4F0C941F02BB27FB0155
:100440005527AA27880F991FAA1FA41710F0A41BCD
:1004500083955051B9F7A05DAA3308F0A95DA19327
:10046000009779F7B111B1931192CB010C94380236
:10047000DC01FC01672F71917723E1F7329704C00B
:100480007C916D9370836291AE17BF07C8F3089596
:04049000F894FFCF0E
:00000001FF
